:020000040800F2
:1000000000500020950F0008F50D0008FD0D0008B8
:1000100000000000000000000000000000000000E0
:10002000000000000000000000000000050E0008B5
:1000300000000000000000000F0E0008190E00086C
:10004000E50F0008E50F0008E50F0008E50F0008C0
:10005000E50F0008270E0008E50F0008E50F00086F
:10006000E50F0008E50F0008E50F0008E50F0008A0
:10007000E50F0008E50F0008E50F0008E50F000890
:10008000E50F0008E50F0008E50F0008000000007C
:10009000E50F0008E50F0008E50F0008E50F000870
:1000A000E50F0008E50F0008E50F0008390E00080D
:1000B000E50F0008E50F000800000000E50F00084C
:1000C00010B5064C2378002B07D1054B002B02D02E
:1000D000044800E000BF0123237010BD6C00002025
:1000E000000000000C590008044B10B5002B03D091
:1000F0000349044800E000BF10BDC04600000000F6
:10010000700000200C5900080023C25C0133002A53
:10011000FBD1581E7047000003B4714649084000E7
:100120004900095E49008E4403BC70470022430821
:100130008B4274D303098B425FD3030A8B4244D3AF
:10014000030B8B4228D3030C8B420DD3FF220902F1
:1001500012BA030C8B4202D31212090265D0030BB0
:100160008B4219D300E0090AC30B8B4201D3CB03A6
:10017000C01A5241830B8B4201D38B03C01A5241E8
:10018000430B8B4201D34B03C01A5241030B8B42EA
:1001900001D30B03C01A5241C30A8B4201D3CB02D5
:1001A000C01A5241830A8B4201D38B02C01A5241BA
:1001B000430A8B4201D34B02C01A5241030A8B42BD
:1001C00001D30B02C01A5241CDD2C3098B4201D3D5
:1001D000CB01C01A524183098B4201D38B01C01A53
:1001E000524143098B4201D34B01C01A52410309CA
:1001F0008B4201D30B01C01A5241C3088B4201D379
:10020000CB00C01A524183088B4201D38B00C01A25
:10021000524143088B4201D34B00C01A5241411A4C
:1002200000D20146524110467047FFE701B5002059
:1002300000F006F802BDC0460029F7D076E7704707
:100240007047C046002B11D1002A0FD1002900D1E0
:10025000002802D00021C943080007B4024802A1C7
:100260004018029003BDC046D9FFFFFF03B46846A3
:1002700001B5029800F034F8019B9E4602B00CBC18
:100280007047C046F0B5CE469946030C9C46130411
:1002900047461B0C1D000E0061460404240C80B56B
:1002A0000700100C4B436543414360432C0CC018BE
:1002B00024188C46A34203D980235B029846C44489
:1002C000494679435643230C2D042D0C8919634468
:1002D00024046019C918C0BCB946B046F0BDC04678
:1002E000F0B557464E464546DE46E0B504000D00E3
:1002F0009246994683B08B4230D82DD0494650461D
:1003000000F0BAF829000600200000F0B5F8331A12
:100310009846203B34D49B4653465A469340424627
:100320001F00534693401E00AF423BD8AF4200D15E
:1003300079E05B46A41BBD41002B00DA76E0002289
:1003400000230092019301235A4693400193012315
:1003500042469340009329E08242CFD900220023F5
:10036000009201930C9B002B01D01C605D600098F3
:10037000019903B0F0BCBB46B246A946A046F0BD09
:1003800042469B4620239B1A5246DA4041461300C0
:100390004A468A40170042461F43534693401E0078
:1003A000AF42C3D900220023009201934346002BA1
:1003B000D8D0FB0772081A4346467B080EE0AB42D2
:1003C00001D1A2420CD8A41A9D41012024196D41EB
:1003D0000021013E24184D41002E06D0AB42EED93B
:1003E000013E24196D41002EF8D1009801995B4619
:1003F00000196941002B24DB2B005A464446D340A8
:100400002A00E2401C005B461500002B2ADB260078
:100410009E40330026004746BE403200801A994174
:10042000009001919EE7A342BCD882E74246202378
:1004300000219B1A0022009101920122DA400192D0
:1004400085E7424620239B1A2A0046469A4023000D
:10045000F340444613432A00E2401C005B4615006B
:10046000002BD4DA42462F002023260097409B1A07
:10047000DE403B003343CDE710B5002903D100F047
:1004800007F8203002E0080000F002F810BDC04676
:100490001C2101231B04984201D3000C10391B0AB4
:1004A000984201D3000A08391B09984201D3000978
:1004B000043902A2105C40187047C04604030202CF
:1004C000010101010000000000000000B0B584B08F
:1004D00000AFF8600C00100019000B257B19221CDE
:1004E0001A700A243B19021C1A7009203B180A1CB6
:1004F0001A7063467B60FB68122B24DCFB680133B7
:100500009A002023FB181B78202149420B43D9B2C3
:100510000F4B9954FB6801339B0001330C4A391887
:100520000978D154FB6801339B000233084A39191A
:100530000978D154FB6801339B000333044A7919CD
:100540000978D15400E0C046BD4604B0B0BDC046F5
:10055000C0010020F0B597B002AF602308229B18BD
:10056000DB197B6428257B19A84A13CA13C313CA55
:1005700013C312781A707B191800FFF7C5FD03002A
:100580009AB27919A248642303F0AEF900F02CFD69
:1005900000F0B0F900F0C4FA00F01AFA00F058FACE
:1005A00000F08EFA4D217B1810221A704C203B1857
:1005B00040221A7018257B197A1812781A707B1944
:1005C0003A1812785A70D42319004B26BC197A199C
:1005D000904864230093022301F06AF9030023701A
:1005E000BB191B78002B06D07B198B4A13CA13C387
:1005F00012781A7004E01823FB18884A13CA13C330
:1006000018243B191800FFF77FFD03009AB239192F
:100610007F48642303F068F9FA239B00180000F078
:1006200053FD7F4B1B68002B07D000F071FD0121AB
:10063000002001F093FE00F079FD7A4B1B68002B3F
:1006400017D03B1D784A13CA13C3116819609188EB
:10065000998092799A713B1D1800FFF755FD0300B0
:100660009AB2391D6A48642303F03EF96D4B0022AB
:100670001A602A2218257B191A70D42319004B26D8
:10068000BC197A19634864230093012301F010F91F
:1006900003002370BB191B78002B08D07B19634A19
:1006A00003CA03C31188198092789A702EE0D4236C
:1006B00019004B257C191826BA1956486423009353
:1006C000022301F0FDF9030023707B191B78002B36
:1006D00008D0BB19564A03CA03C3118819809278FF
:1006E0009A7013E01822BB185B781B0219B2BB1872
:1006F0001B781AB24E203B180A431A803B1800227E
:100700009A5E4C4B1100180004F062FA4A4B0A2220
:100710001A604E217B1800229A5EFA239B019A42AE
:1007200005DA7B1800229B5E444A93420EDA444B62
:10073000FF221A60434B00221A60434B00221A60CA
:100740004423FB189C4600F0A5F855E04E217B1889
:1007500000229A5EFA239B019A4215DA7B18002246
:100760009A5EFA239B009A420EDB354B00221A60F8
:10077000344BFF221A60344B00221A604423FB18CA
:100780009C4600F087F837E04E217B1800229B5EE4
:100790002E4A934214DA7B1800229B5E274A93422A
:1007A0000EDB274B00221A60264B00221A60264BD4
:1007B000FF221A604423FB189C4600F06BF81BE0F4
:1007C0004E217B1800229A5EFA239B009A4213DA8C
:1007D0007B1800229B5E1D4A93420DDB184BFF22C3
:1007E0001A60184BFF221A60174BFF221A6044232D
:1007F000FB189C4600F04EF8FA239B00180000F00E
:1008000063FC074B01221A600BE7C0466C590008D5
:1008100034010020880000202459000834590008C1
:1008200000000020BC010020885900084059000841
:100830004C590008585900082002002081C1FFFFD0
:1008400014020020180200201C02002019FCFFFFE7
:1008500080B582B000AF63467B600B4B0422002161
:10086000180004F011FA094B0422FF21180004F0CB
:100870000BFA054906486423542202F0AFFDC04636
:10088000BD4602B080BDC046C0010020100200205D
:10089000DC000020B0B586B002AF644663467B60E2
:1008A0000023FB6014E00F4B1B68D9B20E4B1B6892
:1008B000DAB20E4B1B68DDB20D4B1B68DBB2F86879
:1008C0000093A4462B00FFF701FEFB680133FB6099
:1008D000FB68122BE7DDA446FFF7BAFFC046BD4612
:1008E00004B0B0BD140200201C0200201802002039
:1008F0002002002090B59DB000AF38243B191800AD
:1009000038231A00002104F0BFF92423FB18180033
:1009100014231A00002104F0B7F93B001800242327
:100920001A00002104F0B0F9274B1B68274A1A402F
:10093000254B802109010A431A6021007B181022EF
:100940001A607B180122DA617B1800221A627B1878
:10095000A02212025A627B1800229A627B181800A9
:1009600001F054FD031E01D000F056F924217B183C
:100970000F221A607B1800225A607B1800229A60AE
:100980007B180022DA607B1800221A617B18002194
:10099000180002F00FF9031E01D000F03DF93B00F2
:1009A00009221A603B0000229A603B0000225A6133
:1009B0003B00180002F022FB031E01D000F02CF9CE
:1009C000C046BD461DB090BD00700040FFE7FFFF70
:1009D00080B500AF1C4B1D4A1A601B4BC122D200D0
:1009E0005A60194B00229A60174B0122DA60164BAD
:1009F00000221A61144B00225A61134B00229A61A3
:100A0000114B0022DA61104B00221A620E4B1800C3
:100A100000F0B8FE031E01D000F0FEF80A4B0021E2
:100A2000180001F003FC031E01D000F0F5F8064B9E
:100A30000021180001F046FC031E01D000F0ECF884
:100A4000C046BD4680BDC04688000020005400401E
:100A500080B500AF184B194A1A60174B822252001A
:100A60005A60154B00229A60134B0022DA60124B39
:100A700000221A61104B00225A610F4B8022920013
:100A80009A610D4B0022DA610B4B00221A620A4B6D
:100A900000225A62084B00229A62074B0722DA6250
:100AA000054B180002F006FC031E01D000F0B4F85C
:100AB000C046BD4680BDC046DC000020003001407D
:100AC00080B500AF144B154A1A60134BE122520255
:100AD0005A60114B00229A600F4B0022DA600E4BD5
:100AE00000221A610C4B0C225A610B4B00229A61B6
:100AF000094B0022DA61084B00221A62064B0022E1
:100B00005A62054B180002F09BFE031E01D000F054
:100B100083F8C046BD4680BD340100200038014046
:100B200090B589B000AF0C243B19180014231A00AB
:100B3000002104F0A9F8294BDA6A284B01210A4365
:100B4000DA62264BDB6A01221340BB60BB68234B91
:100B5000DA6A224B02210A43DA62204BDB6A022264
:100B600013407B607B6881231901A023DB050122F0
:100B7000180000F0CDFD3B1901221A603B198822B4
:100B800052035A603B1900229A603A19A023DB05F0
:100B90001100180000F03EFC21007B188122120198
:100BA0001A607B1801225A607B1800229A607B1819
:100BB0000022DA607A18A023DB051100180000F08B
:100BC00029FC00220021052000F06AFB052000F02E
:100BD0007CFBC046BD4609B090BDC0460010024037
:100BE00080B582B000AF0200BB1D1A80BB1D1B8800
:100BF000012B03D1074B01221A6007E000F088FAAD
:100C00000121002001F0AAFB00F090FAC046BD4689
:100C100002B080BDBC01002080B500AF72B6C046F6
:100C2000C046FDE780B500AF074B5A6B064B01216C
:100C30000A435A63044B9A6B034B802149050A43CC
:100C40009A63C046BD4680BD0010024090B589B091
:100C500000AF78600C243B19180014231A000021FF
:100C600004F012F87B681B68184A93422AD1184B8B
:100C7000DA6A174B01210A43DA62154BDB6A01225B
:100C80001340BB60BB683B19C022D2001A60210030
:100C90007B1812225A607B1801229A607B1803226B
:100CA000DA607B1806221A617A18A023DB0511008E
:100CB000180000F0AFFB064B9A6B054B80218903AF
:100CC0000A439A63C046BD4609B090BD0054004037
:100CD0000010024090B589B000AF78600C243B1939
:100CE000180014231A00002103F0CEFF7B681B6854
:100CF000184A934229D1184B5A6B174B802149014E
:100D00000A435A63144BDA6A134B01210A43DA622D
:100D1000114BDB6A01221340BB60BB6821007B18CA
:100D2000A0221A607B1802225A607B1800229A6067
:100D30007B180322DA607B1800221A617A18A0233C
:100D4000DB051100180000F065FBC046BD4609B088
:100D500090BDC046003001400010024090B589B0FF
:100D600000AF78600C243B19180014231A000021EE
:100D700003F08AFF7B681B681B4A934230D11B4BF0
:100D80005A6B1A4B8021C9010A435A63174BDA6A1E
:100D9000164B02210A43DA62144BDB6A022213402B
:100DA000BB60BB6821007B18C0221A607B1802223E
:100DB0005A607B1800229A607B180322DA607B1845
:100DC00000221A617B180A4A1900100000F022FB69
:100DD000002200211B2000F063FA1B2000F075FAAE
:100DE000C046BD4609B090BD003801400010024029
:100DF0000004005080B500AFC046FDE780B500AFED
:100E0000C046FDE780B500AFC046BD4680BD80B599
:100E100000AFC046BD4680BD80B500AF00F038F9D8
:100E2000C046BD4680BD80B500AF012000F08EFCFD
:100E3000C046BD4680BD000080B500AF034B180022
:100E400002F0F2FDC046BD4680BDC0463401002020
:100E500080B586B000AFF860B9607A6000237B612E
:100E60000AE000E000BF0100BB685A1CBA60CAB2C9
:100E70001A707B6901337B617A697B689A42F0DB87
:100E80007B681800BD4606B080BD80B586B000AF57
:100E9000F860B9607A6000237B6109E0BB685A1C86
:100EA000BA601B78180000E000BF7B6901337B61EA
:100EB0007A697B689A42F1DB7B681800BD4606B010
:100EC00080BD80B582B000AF786001235B4218001E
:100ED000BD4602B080BD80B582B000AF7860396099
:100EE0003B68802292015A6000231800BD4602B080
:100EF00080BD80B582B000AF786001231800BD4688
:100F000002B080BD80B584B000AFF860B9607A608F
:100F100000231800BD4604B080BD000080B586B037
:100F200000AF7860144A154BD31A7B617B693B6133
:100F3000134B1B68002B02D1114B124A1A60104B45
:100F40001A687B68D3183A699A4207D203F0F2FE16
:100F500003000C221A6001235B4209E0084B1B6866
:100F6000FB60074B1A687B68D218054B1A60FB6858
:100F70001800BD4606B080BD0050002000040000EF
:100F8000240200207803002080B500AFC046BD4693
:100F900080BD00000D488546FFF7F6FF0C480D495F
:100FA0000D4A002302E0D458C4500433C4188C42C4
:100FB000F9D30A4A0A4C002301E013600432A2422A
:100FC000FBD303F0BDFEFFF7C5FAFEE7005000209B
:100FD000000000206C0000204C5A00086C0000202B
:100FE00078030020FEE7000080B582B000AFFB1D53
:100FF00000221A700B4B1A680A4B40210A431A60F0
:10100000032000F011F8031E03D0FB1D01221A700B
:1010100001E0FFF707FEFB1D1B781800BD4602B07C
:1010200080BDC0460020024090B583B000AF78601C
:10103000144B1C68144B1B781900FA239800FFF717
:1010400075F8030019002000FFF770F8030018007E
:1010500000F04BF9031E01D001230FE07B68032B46
:101060000BD8796801235B420022180000F018F9C0
:10107000064B7A681A60002300E001231800BD4681
:1010800003B090BD040000200C00002008000020E8
:1010900080B500AF054B1B781A00054B1B68D218B2
:1010A000034B1A60C046BD4680BDC0460C00002000
:1010B0002802002080B500AF024B1B681800BD4617
:1010C00080BDC0462802002080B584B000AF7860A3
:1010D000FFF7F0FF0300BB607B68FB60FB68013338
:1010E00005D00A4B1B781A00FB689B18FB60C046B2
:1010F000FFF7E0FF0200BB68D31AFA689A42F7D8FC
:10110000C046C046BD4604B080BDC0460C000020AD
:1011100080B500AF044B1A68034B02218A431A6062
:10112000C046BD4680BDC04610E000E080B500AFBF
:10113000044B1A68034B02210A431A60C046BD469D
:1011400080BDC04610E000E080B582B000AF020074
:10115000FB1D1A70FB1D1B787F2B09D8FB1D1B780C
:101160001A001F231A40044B012191400A001A6003
:10117000C046BD4602B080BD00E100E090B583B03E
:1011800000AF02003960FB1D1A70FB1D1B787F2B1E
:1011900028D82F4AFB1D1B785BB29B08C0339B00ED
:1011A0009B58FA1D1278110003220A40D200FF2139
:1011B00091400A00D2431A4011003B689B01FF2274
:1011C0001A40FB1D1B78180003230340DB009A40E4
:1011D0001F48FB1D1B785BB29B080A43C0339B0072
:1011E0001A5031E01B4AFB1D1B7819000F230B40DE
:1011F000083B9B0806339B00D31804331B68FA1D79
:101200001278110003220A40D200FF2191400A0007
:10121000D2431A4011003B689B01FF221A40FB1D7C
:101220001B78180003230340DB009A400948FB1D8C
:101230001B781C000F232340083B9B080A430633FE
:101240009B00C31804331A60C046BD4603B090BD6E
:1012500000E100E000ED00E080B582B000AF786012
:101260007B685A1E80235B049A4201D3012310E05D
:101270000A4B7A68013A5A6001235B420321180045
:10128000FFF77CFF054B00229A60044B07221A608F
:1012900000231800BD4602B080BDC04610E000E04B
:1012A00080B584B000AFB9607A600F217B18021C52
:1012B0001A70BA687B181B785BB211001800FFF730
:1012C0005DFFC046BD4604B080BD80B582B000AFB2
:1012D0000200FB1D1A70FB1D1B785BB21800FFF7A4
:1012E00033FFC046BD4602B080BD80B582B000AFBE
:1012F00078607B681800FFF7AFFF03001800BD4659
:1013000002B080BD80B584B000AF78600F23FB18B9
:1013100000221A707B6825229B5CDBB2022B08D06E
:101320007B680422DA637B6824220021995401231C
:1013300024E07B681B681A687B681B680E218A435F
:101340001A607B681B681A687B681B6801218A43E6
:101350001A607B685B6C1C221A407B681B6C012145
:1013600091400A005A607B682522012199547B68CC
:101370002422002199540F23FB181B781800BD4626
:1013800004B080BD80B584B000AF78600F217B18B9
:1013900000221A707B6825229B5CDBB2022B06D0F0
:1013A0007B680422DA637B1801221A702AE07B68CA
:1013B0001B681A687B681B680E218A431A607B6869
:1013C0001B681A687B681B6801218A431A607B6866
:1013D0005B6C1C221A407B681B6C012191400A0047
:1013E0005A607B682522012199547B6824220021C0
:1013F00099547B689B6B002B04D07B689B6B7A684D
:10140000100098470F23FB181B781800BD4604B046
:1014100080BD000080B586B000AF786039600023E1
:101420007B610023FB6000233B6155E13B681B6847
:1014300001217A6991400A001340FB60FB68002B90
:1014400000D146E13B685B6803221340012B05D0C5
:101450003B685B6803221340022B30D17B689B689A
:101460003B617B695B0003229A401300DA433B69CE
:1014700013403B613B68DA687B695B009A4013006C
:101480003A6913433B617B683A699A607B685B68A1
:101490003B6101227B699A401300DA433B691340A8
:1014A0003B613B685B681B0901221A407B699A40DB
:1014B00013003A6913433B617B683A695A603B68A1
:1014C0005B6803221340032B17D07B68DB683B610A
:1014D0007B695B0003229A401300DA433B691340A7
:1014E0003B613B689A687B695B009A4013003A69EC
:1014F00013433B617B683A69DA603B685B680322AF
:101500001340022B23D17B69DA087B6808329200F2
:10151000D3583B617B69072213409B000F229A40FE
:101520001300DA433B6913403B613B681A697B69EE
:1015300007210B409B009A4013003A6913433B611B
:101540007B69DA087B68083292003969D1507B6880
:101550001B683B617B695B0003229A401300DA43FE
:101560003B6913403B613B685B6803221A407B691F
:101570005B009A4013003A6913433B617B683A6908
:101580001A603B685A68C0239B02134000D1A0E058
:10159000574B5A6B564B01210A435A63554A7B6994
:1015A0009B0802339B009B583B617B6903221340DD
:1015B0009B000F229A401300DA433B6913403B61C2
:1015C0007A68A023DB059A421FD07B684A4A93427F
:1015D00019D07B68494A934213D07B68484A9342AA
:1015E0000DD07B68474A934207D07B68464A9342B6
:1015F00001D105230AE0062308E0042306E00323C3
:1016000004E0022302E0012300E000237A690321C1
:101610000A40920093403A6913433B6135497B6924
:101620009B0802339B003A695A50384B9B683B61D8
:10163000FB68DA433B6913403B613B685A6880238F
:101640005B03134003D03A69FB6813433B612F4BA4
:101650003A699A602D4BDB683B61FB68DA433B6972
:1016600013403B613B685A6880239B03134003D0BF
:101670003A69FB6813433B61244B3A69DA60234BB8
:101680005B683B61FB68DA433B6913403B613B6845
:101690005A6880239B02134003D03A69FB681343C6
:1016A0003B611A4B3A695A60184B1B683B61FB68F7
:1016B000DA433B6913403B613B685A6880235B0215
:1016C000134003D03A69FB6813433B610F4B3A69FF
:1016D0001A607B6901337B613B681A687B69DA4079
:1016E000131E00D0A2E6C046C046BD4606B080BD6F
:1016F00000100240000001400004005000080050AB
:10170000000C005000100050001C0050000401406C
:1017100080B582B000AF786008001100BB1C021CCD
:101720001A807B1C0A1C1A707B1C1B78002B04D0AF
:10173000BB1C1A887B689A6103E0BB1C1A887B6813
:101740009A62C046BD4602B080BD000080B582B03E
:1017500000AF0200BB1D1A80094B5B69BA1D1288DD
:10176000134008D0064BBA1D12885A61BB1D1B8856
:101770001800FFF735FAC046BD4602B080BDC0462E
:101780000004014080B582B000AF78607B68002B18
:1017900001D1012382E07B6841229B5CDBB2002BFC
:1017A00007D17B684022002199547B681800FFF71D
:1017B0004DFA7B684122242199547B681B681A6882
:1017C0007B681B6801218A431A607B685A687B68C2
:1017D0001B6834490A401A617B681B689A687B68F9
:1017E0001B6831490A409A607B68DB68012B08D18D
:1017F0007B689A687B681B68802109020A439A60AB
:1018000007E07B689A687B681B68842109020A43A9
:101810009A607B68DB68022B04D17B681B6880229E
:1018200012015A607B681B685A687B681B681F49F5
:101830000A435A607B681B68DA687B681B681A4930
:101840000A40DA607B681A697B685B691A43110099
:101850007B689B691A027B681B680A43DA607B68B5
:10186000D9697B681A6A7B681B680A431A607B68BF
:101870001B681A687B681B6801210A431A607B6831
:1018800000225A647B684122202199547B680022FF
:101890001A637B6842220021995400231800BD4638
:1018A00002B080BDFFFFFFF0FF7FFFFF008000025E
:1018B00090B589B002AFF86008007A6019000A2379
:1018C000FB18021C1A800823FB180A1C1A80FB68EC
:1018D00041229B5CDBB2202B00D0E7E0FB6840227A
:1018E0009B5C012B01D10223E1E0FB684022012136
:1018F0009954FFF7DFFB03007B6180231902F8682E
:101900007B6900931923012200F004FA031E01D021
:101910000123CCE0FB68412221219954FB6842223B
:1019200010219954FB6800225A64FB687A685A6255
:10193000FB680822BA1812885A85FB6800225A638D
:10194000FB685B8D9BB2FF2B11D9FB68FF221A85C8
:10195000FB681B8DDAB280235C040A23FB1819880C
:10196000F868554B0093230000F026FC75E0FB68F7
:101970005B8D9AB2FB681A85FB681B8DDAB28023F7
:101980009C040A23FB181988F8684B4B009323002A
:1019900000F012FC61E07A69B96AFB68180000F097
:1019A00007FA031E01D0012381E0FB685B6A1A7805
:1019B000FB681B689A62FB685B6A5A1CFB685A6288
:1019C000FB685B8D9BB2013B9AB2FB685A85FB6852
:1019D0001B8D013B9AB2FB681A85FB685B8D9BB23D
:1019E000002B3AD0FB681B8D002B36D1BA6AF86801
:1019F0007B69009313000022802100F08BF9031E05
:101A000001D0012353E0FB685B8D9BB2FF2B11D902
:101A1000FB68FF221A85FB681B8DDAB280235C0409
:101A20000A23FB181988F86800230093230000F0AC
:101A3000C3FB12E0FB685B8D9AB2FB681A85FB68FA
:101A40001B8DDAB280239C040A23FB181988F868DE
:101A500000230093230000F0AFFBFB685B8D9BB27B
:101A6000002B98D17A69B96AFB68180000F0E6F992
:101A7000031E01D001231AE0FB681B682022DA61F3
:101A8000FB681B685A68FB681B680C490A405A606F
:101A9000FB68412220219954FB684222002199547D
:101AA000FB68402200219954002300E00223180023
:101AB000BD4607B090BDC0460020008000E800FE93
:101AC00090B589B002AFF86008007A6019000A2367
:101AD000FB18021C1A800823FB180A1C1A80FB68DA
:101AE00041229B5CDBB2202B00D0E8E0FB68402267
:101AF0009B5C012B01D10223E2E0FB684022012123
:101B00009954FFF7D7FA03007B6180231902F86824
:101B10007B6900931923012200F0FCF8031E01D019
:101B20000123CDE0FB68412222219954FB68422227
:101B300010219954FB6800225A64FB687A685A6243
:101B4000FB680822BA1812885A85FB6800225A637B
:101B5000FB685B8D9BB2FF2B11D9FB68FF221A85B6
:101B6000FB681B8DDAB280235C040A23FB181988FA
:101B7000F868554B0093230000F01EFB76E0FB68ED
:101B80005B8D9AB2FB681A85FB681B8DDAB28023E5
:101B90009C040A23FB181988F8684B4B0093230018
:101BA00000F00AFB62E07A69B96AFB68180000F08D
:101BB00089F9031E01D0012382E0FB681B685A6A81
:101BC000FB685B6AD2B21A70FB685B6A5A1CFB68DE
:101BD0005A62FB681B8D013B9AB2FB681A85FB6851
:101BE0005B8D9BB2013B9AB2FB685A85FB685B8DAB
:101BF0009BB2002B3AD0FB681B8D002B36D1BA6A02
:101C0000F8687B69009313000022802100F082F8BD
:101C1000031E01D0012353E0FB685B8D9BB2FF2BB9
:101C200011D9FB68FF221A85FB681B8DDAB280236D
:101C30005C040A23FB181988F8680023009323002A
:101C400000F0BAFA12E0FB685B8D9AB2FB681A8565
:101C5000FB681B8DDAB280239C040A23FB181988C9
:101C6000F86800230093230000F0A6FAFB685B8D60
:101C70009BB2002B97D17A69B96AFB68180000F013
:101C8000DDF8031E01D001231AE0FB681B68202247
:101C9000DA61FB681B685A68FB681B680B490A40DD
:101CA0005A60FB68412220219954FB68422200219E
:101CB0009954FB68402200219954002300E002233C
:101CC0001800BD4607B090BD0024008000E800FE6B
:101CD00080B582B000AF78607B681B689B69022288
:101CE0001340022B03D17B681B6800229A627B6839
:101CF0001B689B6901221340012B07D07B681B687E
:101D00009A697B681B6801210A439A61C046BD46F7
:101D100002B080BD80B584B000AFF860B9603B60B0
:101D2000FB1D1A7030E03B6801332DD0FFF7C2F97C
:101D30000200BB69D31A3A689A4202D33B68002B6F
:101D400022D1FB681B689B69BA681340BA68D31A32
:101D50005A425341DBB21A00FB1D1B789A4213D141
:101D6000FB685B6C20221A43FB685A64FB684122C3
:101D700020219954FB68422200219954FB6840229B
:101D80000021995401230FE0FB681B689B69BA6826
:101D90001340BA68D31A5A425341DBB21A00FB1DF2
:101DA0001B789A42BFD000231800BD4604B080BD06
:101DB00080B584B000AFF860B9607A6032E07A68CC
:101DC000B968FB68180000F0FFF8031E01D001237A
:101DD00030E0BB68013325D0FFF76CF902007B6867
:101DE000D31ABA689A4202D3BB68002B1AD1FB6897
:101DF0001B689B6902221340022B13D0FB685B6CAB
:101E000020221A43FB685A64FB684122202199541E
:101E1000FB68422200219954FB684022002199541A
:101E2000012307E0FB681B689B6902221340022B19
:101E3000C5D100231800BD4604B080BD80B584B074
:101E400000AFF860B9607A602FE07A68B968FB6823
:101E5000180000F0B9F8031E01D001232DE0FFF7B0
:101E600029F902007B68D31ABA689A4202D3BB6888
:101E7000002B1AD1FB681B689B6920221340202B82
:101E800013D0FB685B6C20221A43FB685A64FB6822
:101E9000412220219954FB68422200219954FB6879
:101EA000402200219954012307E0FB681B689B69CD
:101EB00020221340202BC8D100231800BD4604B0B7
:101EC00080BD000080B584B000AFF860B9607A6072
:101ED0006BE07A68B968FB68180000F075F8031EBB
:101EE00001D0012369E0FB681B689B692022134035
:101EF000202B38D1FB681B689B6904221340042BFC
:101F000005D1FB681B8D002B01D0002355E0FB6839
:101F10001B689B6910221340102B07D1FB681B68BC
:101F20001022DA61FB6804225A6402E0FB68002296
:101F30005A64FB681B682022DA61FB681B685A68D8
:101F4000FB681B681F490A405A60FB684122202138
:101F50009954FB68422200219954FB6840220021D9
:101F60009954012329E0FFF7A5F802007B68D31AF2
:101F7000BA689A4202D3BB68002B16D1FB681B6873
:101F80009B6904221340042B0FD0FB685B6C20225A
:101F90001A43FB685A64FB68412220219954FB686C
:101FA000402200219954012307E0FB681B689B69CC
:101FB00004221340042B8CD100231800BD4604B02A
:101FC00080BDC04600E800FE80B58AB000AFF86072
:101FD000B9607A602723FB1800221A70FB681B681F
:101FE0009B69BB6100233B627B68FB61BB6910227C
:101FF000134000D179E0FB681B681022DA6157E0DA
:102000002722BB18BA1812781A70BB6801334FD058
:10201000FFF750F80200FB69D31ABA689A4202D35C
:10202000BB68002B44D1FB681B685A688023DB0126
:1020300013407B6113203B18FA684221525C1A70EE
:10204000FB681B689A6980231B021A4080231B02CD
:102050009A4226D17A698023DB019A4221D03B182B
:102060001B78202B1DD0FB681B685A68FB681B6817
:102070008021C9010A435A60FFF71CF80300FB6185
:102080000FE0FFF717F80200FB69D31A192B08D9E4
:102090003B6A202213433B622723FB1801221A705C
:1020A00006E0FB681B689B6920221340202BE8D1C7
:1020B000FB681B689B6920221340202B04D0272338
:1020C000FB181B78002B9BD02723FB181B78002BB9
:1020D00003D1FB681B682022DA613B6A04221343A8
:1020E0003B622723FB1801221A70FB681B689B695F
:1020F000BB61BA6980235B0013400CD03B6A0122AC
:1021000013433B62FB681B6880225200DA6127237D
:10211000FB1801221A70BA698023DB0013400CD02F
:102120003B6A082213433B62FB681B688022D20093
:10213000DA612723FB1801221A70BA6980239B00F9
:1021400013400CD03B6A022213433B62FB681B68BE
:1021500080229200DA612723FB1801221A702723BC
:10216000FB181B78002B1DD0FB681800FFF7B0FD93
:10217000FB681B685A68FB681B680E490A405A6076
:10218000FB685A6C3B6A1A43FB685A64FB6841223D
:1021900020219954FB68422200219954FB68402277
:1021A000002199542723FB181B781800BD460AB05C
:1021B00080BDC04600E800FE90B587B000AFF86073
:1021C000080011007B600A243B19021C1A800920B8
:1021D0003B180A1C1A703B191B889B059A0D3B186B
:1021E0001B781904FF231B040B401A437B681A4316
:1021F000BB6A13435B005B087B61FB681B685B6821
:10220000BA6A510D8022D2000A4007490A43D243DC
:102210001A401100FB681B687A690A435A60C0467D
:10222000BD4607B090BDC046FF63FF0380B582B0D6
:1022300000AF786039607B6841229B5CDBB2202B69
:1022400038D17B6840229B5C012B01D1022332E014
:102250007B684022012199547B68412224219954B2
:102260007B681B681A687B681B6801218A431A60B7
:102270007B681B681A687B681B6811490A401A60F2
:102280007B681B6819687B681B683A680A431A6098
:102290007B681B681A687B681B6801210A431A6007
:1022A0007B684122202199547B6840220021995467
:1022B000002300E002231800BD4602B080BDC046E6
:1022C000FFEFFFFF80B584B000AF786039607B68B6
:1022D00041229B5CDBB2202B39D17B6840229B5C86
:1022E000012B01D1022333E07B6840220121995464
:1022F0007B684122242199547B681B681A687B689B
:102300001B6801218A431A607B681B681B68FB609D
:10231000FB68114A1340FB603B681B02FA681343D9
:10232000FB607B681B68FA681A607B681B681A6828
:102330007B681B6801210A431A607B6841222021C7
:1023400099547B68402200219954002300E0022325
:102350001800BD4604B080BDFFF0FFFF80B586B019
:1023600000AF78600A00FB1C1A7000237B61234BCE
:102370001A6880239B0013403B61214B1B6A01229A
:102380001340FB603B69002B08D0FB68002B05D095
:102390001A4B1A68194B1B490A401A60174B1B68E5
:1023A0007B617B69032293437B617A697B6813437A
:1023B0007B61124B7A691A60134B1A69124B042124
:1023C0008A431A61FB1C1B78012B01D130BF02E04C
:1023D00040BF20BF20BF3B69002B09D0FB68002B0A
:1023E00006D0064B1A68054B802189000A431A6003
:1023F000C046C046BD4606B080BDC0460070004025
:1024000000000140FFFDFFFF00ED00E0B0B58AB025
:1024100000AF78607B68002B02D1012300F0BFFB86
:10242000C94BDB680C221340FB61C74BDA68802381
:102430005B021340BB617B681B680122134000D123
:102440007EE0FB69082B07D0FB690C2B12D1BA691F
:1024500080235B029A420DD1BB4B1A6880239B02FA
:10246000134000D16BE07B685B68002B67D10123D0
:1024700000F095FB7B685A6880235B029A4207D183
:10248000B14B1A68B04B802149020A431A6027E019
:102490007B685A68A023DB029A420ED1AA4B1A68C5
:1024A000A94B8021C9020A431A60A74B1A68A64BA0
:1024B000802149020A431A6012E0A34B1A68A24B1A
:1024C000A2490A401A60A04B1A6880235B0213409D
:1024D000FB60FB689C4B1A689B4B9D490A401A6045
:1024E0007B685B68002B15D0FEF7E4FD03007B6181
:1024F00009E0FEF7DFFD02007B69D31A642B02D9E5
:10250000032300F04CFB904B1A6880239B0213407E
:10251000EFD015E0FEF7CEFD03007B6108E0FEF78B
:10252000C9FD02007B69D31A642B01D9032336E36A
:10253000854B1A6880239B021340F0D100E0C0460F
:102540007B681B680222134000D199E07B68DB683E
:102550007B627B6A2022134009D07B4B1A687A4B3E
:1025600020210A431A607B6A202293437B62FB6925
:10257000042B05D0FB690C2B3ED1BB69002B3BD152
:10258000714B1B680422134004D07B6A002B01D1DD
:10259000012304E36C4B5B686E4A134019007B68AF
:1025A0001B691A02684B0A435A60674B1B68092271
:1025B00093431900644B7A6A0A431A6000F042FCA4
:1025C0000100614BDB681B090F221340624AD35C98
:1025D0000A00DA40614B1A60614B1B6813257C19B5
:1025E0001800FEF721FD030023707B191B78002BD8
:1025F00046D07B191B78D2E27B6A002B27D0524B46
:102600001B680922934319004F4B7A6A0A431A60E8
:10261000FEF750FD03007B6108E0FEF74BFD020072
:102620007B69D31A022B01D90323B8E2464B1B68FE
:1026300004221340F1D0444B5B68464A1340190012
:102640007B681B691A02404B0A435A6018E03E4BF4
:102650001A683D4B01218A431A60FEF72BFD0300E7
:102660007B6108E0FEF726FD02007B69D31A022B8E
:1026700001D9032393E2344B1B6804221340F1D1A8
:102680007B681B681022134000D1A2E0FB69002B7D
:1026900040D12D4B1A6880239B00134005D07B68E6
:1026A000DB69002B01D1012379E2274B5B682D4ABE
:1026B000134019007B685A6A234B0A435A60224B25
:1026C0005B681B02190A7B681B6A1A061E4B0A43C9
:1026D0005A607B685B6A5B0B0133802212029A406E
:1026E000194BDB681B090F210B401B49CB5CDA40FF
:1026F0001A4B1A601A4B1B6813257C191800FEF739
:1027000093FC030023707B191B78002B61D07B198D
:102710001B7844E27B68DB69002B40D00A4B1A68C7
:10272000094B802149000A431A60FEF7C3FC0300ED
:102730007B6119E0FEF7BEFC02007B69D31A022B15
:1027400012D903232BE2C04600100240FFFFFEFF18
:10275000FFFFFBFFFFE0FFFF9C5900080400002083
:1027600008000020FF1FFFFFCA4B1A6880239B0050
:102770001340DFD0C74B5B68C74A134019007B6822
:102780005A6AC44B0A435A60C24B5B681B02190A5F
:102790007B681B6A1A06BF4B0A435A6019E0BD4B9F
:1027A0001A68BC4BBD490A401A60FEF783FC03005F
:1027B0007B6108E0FEF77EFC02007B69D31A022BE6
:1027C00001D90323EBE1B34B1A6880239B0013402C
:1027D000F0D17B681B680822134036D07B685B69A8
:1027E000002B19D0AB4B1A6DAA4B01210A431A6575
:1027F000FEF760FC03007B6108E0FEF75BFC020073
:102800007B69D31A022B01D90323C8E1A14B1B6DAD
:1028100002221340F1D018E09E4B1A6D9D4B01210E
:102820008A431A65FEF746FC03007B6108E0FEF769
:1028300041FC02007B69D31A022B01D90323AEE1CC
:10284000944B1B6D02221340F1D17B681B6804225C
:10285000134000D1AEE023203B1800221A708D4BAC
:102860009A6B80235B05134009D18A4B9A6B894B85
:10287000802149050A439A633B1801221A70884B4C
:102880001A6880235B0013401AD1854B1A68844B69
:10289000802149000A431A60FEF70CFC03007B61AB
:1028A00008E0FEF707FC02007B69D31A642B01D90C
:1028B000032374E17A4B1A6880235B001340F0D045
:1028C0007B689A6880235B009A4207D1714B1A6D2E
:1028D000704B802149000A431A6531E07B689B6890
:1028E000002B0CD16B4B1A6D6A4B6C490A401A6570
:1028F000684B1A6D674B6B490A401A6520E07B688C
:102900009A68A023DB009A420ED1624B1A6D614B8C
:102910008021C9000A431A655E4B1A6D5D4B802108
:1029200049000A431A650BE05A4B1A6D594B5B4933
:102930000A401A65574B1A6D564B5A490A401A6598
:102940007B689B68002B15D0FEF7B4FB03007B610E
:1029500009E0FEF7AFFB02007B69D31A524A9342AB
:1029600001D903231BE14B4B1A6D80239B001340BD
:10297000EFD014E0FEF79EFB03007B6109E0FEF759
:1029800099FB02007B69D31A474A934201D903237A
:1029900005E1404B1A6D80239B001340EFD12323A8
:1029A000FB181B78012B05D13A4B9A6B394B3F49E9
:1029B0000A409A637B681B682022134049D07B68D9
:1029C0009B69002B26D0334B9A68324B01210A4376
:1029D0009A60304B5A6B2F4B01210A435A63344B98
:1029E0001A6A334B802189010A431A62FEF762FB9F
:1029F00003007B6108E0FEF75DFB02007B69D31AF0
:102A0000022B01D90323CAE0224B9B680222134008
:102A1000F1D01EE01F4B9A681E4B01218A439A6039
:102A2000234B1A6A224B23490A401A62FEF742FBE3
:102A300003007B6108E0FEF73DFB02007B69D31ACF
:102A4000022B01D90323AAE0124B9B6802221340F8
:102A5000F1D17B689B6A002B00D19FE0FB690C2BB6
:102A600000D178E07B689B6A022B59D1094B1A6828
:102A7000084B11490A401A60FEF71CFB03007B61FA
:102A80001CE0FEF717FB02007B69D31A022B15D955
:102A9000032384E000100240FF1FFFFFFFFEFFFF43
:102AA00000700040FFFBFFFF88130000FFFFFFEFF7
:102AB00000000140FFDFFFFFFFFFFFFE3A4B1A68F7
:102AC00080239B041340DCD1374BDB68374A13402B
:102AD00019007B68DA6A7B681B6B1A437B685B6B47
:102AE0001A43314B0A43DA602F4B1A682E4B802170
:102AF00049040A431A60FEF7DDFA03007B6108E02F
:102B0000FEF7D8FA02007B69D31A022B01D90323FE
:102B100045E0254B1A6880239B041340F0D03DE02C
:102B2000214B1A68204B22490A401A60FEF7C2FA6C
:102B300003007B6108E0FEF7BDFA02007B69D31A4F
:102B4000022B01D903232AE0174B1A6880239B0428
:102B50001340F0D122E07B689B6A012B01D1012355
:102B60001DE0114BDB68BB61BA6980235B021A4030
:102B70007B68DB6A9A420FD1BA69F0239B031A4043
:102B80007B681B6B9A4207D1BA69C0231B041A40A9
:102B90007B685B6B9A4201D0012300E000231800A0
:102BA000BD460AB0B0BDC04600100240FFFF02FFA4
:102BB000FFFFFFFEB0B584B000AF786039607B687E
:102BC000002B01D1012328E1964B1B680122134001
:102BD0003A689A421ED9934B1B680122934319000D
:102BE000904B3A680A431A60FEF764FA0300FB60F0
:102BF00009E0FEF75FFA0200FB68D31A8A4A9342A3
:102C000001D9032309E1874B1B68012213403A686D
:102C10009A42EED17B681B680222134009D0834B95
:102C2000DB68F022934319007B689A687F4B0A4364
:102C3000DA607B681B680122134000D189E07B6861
:102C40005B68022B07D1794B1A6880239B021340E3
:102C500020D10123E1E07B685B68032B07D1734B34
:102C60001A6880239B04134014D10123D5E07B68AC
:102C70005B68012B06D16D4B1B680422134009D100
:102C80000123CAE0694B1A6880239B00134001D1DD
:102C90000123C2E0654BDB680322934319007B6884
:102CA0005A68624B0A43DA60FEF704FA0300FB60DD
:102CB0007B685B68022B11D109E0FEF7FBF902008B
:102CC000FB68D31A584A934201D90323A5E0574B16
:102CD000DB680C221340082BEFD13AE07B685B687D
:102CE000032B11D109E0FEF7E5F90200FB68D31AC6
:102CF0004D4A934201D903238FE04C4BDB680C22F1
:102D000013400C2BEFD124E07B685B68012B1BD1B7
:102D100009E0FEF7CFF90200FB68D31A424A93425A
:102D200001D9032379E0414BDB680C221340042BCB
:102D3000EFD10EE0FEF7BEF90200FB68D31A3A4A63
:102D4000934201D9032368E0384BDB680C2213401F
:102D5000F0D1344B1B68012213403A689A421ED2CC
:102D6000304B1B680122934319002E4B3A680A43EB
:102D70001A60FEF79FF90300FB6009E0FEF79AF97D
:102D80000200FB68D31A284A934201D9032344E086
:102D9000244B1B68012213403A689A42EED17B68AB
:102DA0001B680422134009D0204BDB68204A1340E3
:102DB00019007B68DA681D4B0A43DA607B681B6880
:102DC000082213400AD0194BDB681A4A1340190035
:102DD0007B681B69DA00154B0A43DA6000F032F8B1
:102DE0000100124BDB681B090F221340124AD35C0F
:102DF0000A00DA40114B1A60114B1B680B257C1935
:102E00001800FEF711F9030023707B191B78002BC3
:102E100002D07B191B7800E000231800BD4604B0E7
:102E2000B0BDC046002002408813000000100240E0
:102E3000FFF8FFFFFFC7FFFF9C59000804000020B8
:102E400008000020B0B58EB000AF4C4BDB68FB62D1
:102E5000FA6A0C2313400C2B14D000D97BE0042B0E
:102E600002D0082B0BD076E0444B1B681022134095
:102E700002D0434B3B637CE0424B3B6379E0424BE7
:102E80003B6376E0FB6A9A0C0F231A403F4B9B5C36
:102E9000BB62FB6A9A0D0323134001337B62374BFD
:102EA000DA6880235B0213401AD0BB6ABB6100233F
:102EB000FB61354A0023B869F969FDF7E3F90200BF
:102EC0000B00100019007B6A3B6100237B613A69AB
:102ED0007B69FDF7B7F902000B0013007B6337E055
:102EE000264B1B68102213401AD0BB6ABB6000231C
:102EF000FB60234A0023B868F968FDF7C3F90200B4
:102F00000B00100019007B6A3B6000237B603A686D
:102F10007B68FDF797F902000B0013007B6317E055
:102F2000BB6A180000231900164A0023FDF7AAF90E
:102F300002000B00100019007B6A1C0000231D001A
:102F400022002B00FDF77EF902000B0013007B63CB
:102F50007B6B3B630DE0094B5B685B0B0722134007
:102F60003B623B6A0133802212029A4013003B63AA
:102F7000C0463B6B1800BD460EB0B0BD001002400D
:102F800000093D000024F40000127A00B459000842
:102F900080B500AF024B1B681800BD4680BDC0461F
:102FA0000400002080B500AFFFF7F2FF0100064BE0
:102FB000DB681B0A07221340044AD35CD9400B008C
:102FC0001800BD4680BDC04600100240AC59000844
:102FD00080B500AFFFF7DCFF0100064BDB68DB0AC2
:102FE00007221340044AD35CD9400B001800BD46A9
:102FF00080BDC04600100240AC59000880B586B0C4
:1030000000AF786017203B1800221A707B681B689D
:103010002022134000D1C7E09B4B9A6B80235B05B5
:10302000134009D1984B9A6B974B802149050A436D
:103030009A633B1801221A70944B1A6880235B0034
:1030400013401AD1914B1A68904B802149000A43D2
:103050001A60FEF72FF803003B6108E0FEF72AF83C
:1030600002003B69D31A642B01D9032307E1874B84
:103070001A6880235B001340F0D0834B1A68C0238A
:103080009B031340FB607B685A68C0239B0313407B
:10309000FA689A4213D07B685A68C0239B021A4090
:1030A000C0239B029A420AD1774B1A6880239B0265
:1030B0001A4080239B029A4201D10123DFE0724B28
:1030C0001A6DC0239B021340FB60FB68002B3BD0B2
:1030D0007B685A68C0239B021340FA689A4233D037
:1030E0007B681B68202213402ED0674B1B6D684AFB
:1030F0001340FB60644B1A6D634B802109030A4344
:103100001A65614B1A6D604B62490A401A655E4B45
:10311000FA681A65FA6880235B00134014D0FDF743
:10312000C9FF03003B6109E0FDF7C4FF02003B69F2
:10313000D31A594A934201D90323A0E0524B1A6D86
:1031400080239B001340EFD07B681B682022134034
:103150001FD07B685A68C0239B021A40C0239B0281
:103160009A420CD1484B1B684C4A134019007B68AB
:103170005A68C0239B031A40434B0A431A60424BD0
:10318000196D7B685A68C0239B021A403E4B0A4364
:103190001A651723FB181B78012B05D13A4B9A6B44
:1031A000394B3F490A409A637B681B6801221340F0
:1031B00009D0354BDB6C0322934319007B689A6876
:1031C000314B0A43DA647B681B680222134009D042
:1031D0002D4BDB6C0C22934319007B68DA682A4B79
:1031E0000A43DA647B681B680422134009D0264B2B
:1031F000DB6C2C4A134019007B681A69224B0A4386
:10320000DA647B681B680822134009D01E4BDB6C14
:10321000254A134019007B685A691B4B0A43DA643C
:103220007B681A6880235B00134009D0164BDB6C67
:10323000174A134019007B689A69134B0A43DA64F2
:103240007B681B684022134009D00F4BDB6C174A88
:10325000134019007B681A6A0B4B0A43DA647B68D7
:103260001B688022134009D0074BDB6C104A1340C7
:1032700019007B68DA69044B0A43DA6400231800FA
:10328000BD4606B080BDC046001002400070004040
:10329000FFFFFCFFFFFFF7FF88130000FFFFCFFFDA
:1032A000FFFFFFEFFFF3FFFFFFCFFFFFFFFFFFFB7E
:1032B000FFFFF3FF80B582B000AF78607B68002B22
:1032C00001D1012383E07B685B6A002B09D17B6815
:1032D0005A6882235B009A4209D07B680022DA6137
:1032E00005E07B6800221A617B6800225A617B68D6
:1032F00000229A627B6851229B5CDBB2002B07D1D3
:103300007B685022002199547B681800FDF7E2FC8D
:103310007B685122022199547B681B681A687B687C
:103320001B6840218A431A607B685A6882235B00CD
:103330001A407B68996884231B020B401A437B6800
:10334000D96880231B010B401A437B681B6902214B
:103350000B401A437B685B6901210B401A437B6871
:10336000996980239B000B401A437B68DB693821F5
:103370000B401A437B681B6A80210B401A431100E3
:103380007B689A6A80239B011A407B681B680A430A
:103390001A607B689B691B0C0422134019007B6830
:1033A0005B6A10221A407B681B680A435A607B687C
:1033B0001B68DA697B681B6807490A40DA617B6829
:1033C00000225A657B68512201219954002318007C
:1033D000BD4602B080BDC046FFF7FFFF80B588B094
:1033E00000AFF860B9603B60BB1D1A801F23FB185B
:1033F00000221A70FB6850229B5C012B01D1022332
:1034000045E1FB68502201219954FDF753FE03006A
:10341000BB611623FB18BA1D12881A80FB68512263
:103420009B5CDBB2012B04D01F23FB1802221A7015
:1034300026E1BB68002B03D0BB1D1B88002B04D1E9
:103440001F23FB1801221A701AE1FB685122032185
:103450009954FB6800225A65FB68BA681A63FB68D6
:10346000BA1D12889A86FB68BA1D1288DA86FB6834
:1034700000229A63FB6800229A87FB680022DA87A1
:10348000FB6800225A64FB6800221A64FB689A6891
:1034900080231B029A4210D1FB681B681A68FB68E4
:1034A0001B6840218A431A60FB681B681A68FB6826
:1034B0001B688021C9010A431A60FB681B681B68EE
:1034C00040221340402B07D0FB681B681A68FB683A
:1034D0001B6840210A431A60FB68DA6880231B01DD
:1034E0009A4252D1FB685B68002B04D01623FB186C
:1034F0001B88012B43D1FB681B6B1A88FB681B6878
:10350000DA60FB681B6B9A1CFB681A63FB68DB8E36
:103510009BB2013B9AB2FB68DA8630E0FB681B681D
:103520009B6802221340022B12D1FB681B6B1A8886
:10353000FB681B68DA60FB681B6B9A1CFB681A63EC
:10354000FB68DB8E9BB2013B9AB2FB68DA8616E021
:10355000FDF7B0FD0200BB69D31A3A689A4202D85F
:103560003B68013302D13B68002B08D11F23FB18B5
:1035700003221A70FB6851220121995480E0FB68F4
:10358000DB8E9BB2002BC9D153E0FB685B68002B3C
:1035900004D01623FB181B88012B45D1FB681A6B3E
:1035A000FB681B680C3312781A70FB681B6B5A1C83
:1035B000FB681A63FB68DB8E9BB2013B9AB2FB6827
:1035C000DA8631E0FB681B689B6802221340022BFD
:1035D00013D1FB681A6BFB681B680C3312781A70E6
:1035E000FB681B6B5A1CFB681A63FB68DB8E9BB283
:1035F000013B9AB2FB68DA8616E0FDF75BFD02003C
:10360000BB69D31A3A689A4202D83B68013302D1A7
:103610003B68002B08D11F23FB1803221A70FB689C
:103620005122012199542BE0FB68DB8E9BB2002BC9
:10363000C8D1BA693968FB68180000F0BBF8031EEE
:1036400002D0FB6820225A65FB689B68002B0AD1D8
:1036500000233B61FB681B68DB683B61FB681B6800
:103660009B683B613B69FB685B6D002B04D01F23AB
:10367000FB1801221A7003E0FB68512201219954C2
:10368000FB685022002199541F23FB181B78180057
:10369000BD4608B080BD000080B588B000AFF860BE
:1036A000B9603B60FB1D1A70FDF704FD0200BB6AA8
:1036B0009B1A3A68D318FB61FDF7FCFC0300BB6161
:1036C0003A4B1B685B011B0DFA6953437B6158E061
:1036D0003B68013355D0FDF7EDFC0200BB69D31AFE
:1036E000FA699A4202D9FB69002B42D1FB681B6838
:1036F0005A68FB681B68E0218A435A60FB685A6875
:1037000082235B009A4213D1FB689A6880231B02D4
:103710009A4205D0FB689A688023DB009A4207D161
:10372000FB681B681A68FB681B6840218A431A60A3
:10373000FB689A6A80239B019A4210D1FB681B6840
:103740001A68FB681B681A490A401A60FB681B6804
:103750001A68FB681B68802189010A431A60FB68AC
:10376000512201219954FB685022002199540323CE
:1037700017E07B69002B01D10023FB617B69013BD2
:103780007B61FB681B689B68BA681340BA68D31AF0
:103790005A425341DBB21A00FB1D1B789A4297D163
:1037A00000231800BD4608B080BDC04604000020BC
:1037B000FFDFFFFF80B588B002AFF860B9607A60C4
:1037C0001D4B1B681D491800FCF7B0FC03001A00D4
:1037D00013005B019B1A9B009B18DB007B61FB685D
:1037E0005A6882235B009A4212D1BA68F8687B68F3
:1037F0000093130000228021FFF74EFF031E16D016
:10380000FB685B6D20221A43FB685A6503230FE0B7
:103810007B69002B0AD07B69013B7B61FB681B68DD
:103820009B6880221340802BF2D000E0C04600232A
:103830001800BD4606B080BD0400002000366E01B1
:1038400080B582B000AF78607B68002B01D1012386
:1038500044E07B68DB6F002B07D17B687822002176
:1038600099547B681800FDF779FA7B682422DA679F
:103870007B681B681A687B681B6801218A431A6091
:103880007B68180000F0CEFB0300012B01D101235F
:1038900024E07B685B6A002B03D07B68180000F093
:1038A0005FFE7B681B685A687B681B680D490A408D
:1038B0005A607B681B689A687B681B682A218A4368
:1038C0009A607B681B681A687B681B6801210A4341
:1038D0001A607B68180000F0F7FE03001800BD4670
:1038E00002B080BDFFB7FFFF80B58AB002AFF860BD
:1038F000B9603B60BB1D1A80FB68DB6F202B00D0DA
:103900008CE0BB68002B03D0BB1D1B88002B01D1B2
:10391000012384E0FB689A6880235B019A4209D105
:10392000FB681B69002B05D1BB680122134001D045
:10393000012374E0FB68842200219950FB68212256
:10394000DA67FDF7B7FB03007B61FB68BA1D502106
:1039500012885A52FB68BA1D522112885A52FB68CB
:103960009A6880235B019A4208D1FB681B69002B8F
:1039700004D10023FB61BB68BB6103E0BB68FB6152
:103980000023BB612FE07A69F8683B68009313005D
:103990000022802100F040FF031E04D0FB6820229B
:1039A000DA6703233BE0FB69002B0BD1BB691B8863
:1039B0001A00FB681B68D205D20D9A62BB690233FC
:1039C000BB6107E0FB691A78FB681B689A62FB69B8
:1039D0000133FB61FB6852229B5A9BB2013B99B2B7
:1039E000FB6852229952FB6852229B5A9BB2002BD1
:1039F000C9D17A69F8683B6800931300002240211E
:103A000000F00AFF031E04D0FB682022DA670323BC
:103A100005E0FB682022DA67002300E0022318009B
:103A2000BD4608B080BD000090B5ABB000AF786077
:103A30007B681B68DB69A422B9180B607B681B6874
:103A40001B68A02039180B607B681B689B689C2151
:103A500079180B601100BB181B68994A1340982213
:103A6000BC182360BB181B68002B14D17B181B6883
:103A7000202213400FD03B181B68202213400AD08D
:103A80007B689B6E002B00D1A0E27B689B6E7A68FE
:103A9000100098479AE29823FB181B68002B00D16E
:103AA00014E19C23FB181B680122134006D1A023BC
:103AB000FB181B68834A134000D107E1A423FB18BD
:103AC0001B680122134012D0A023FB181A68802320
:103AD0005B0013400BD07B681B6801221A627B6875
:103AE00084229B5801221A437B6884215A50A423C4
:103AF000FB181B680222134011D09C23FB181B6883
:103B0000012213400BD07B681B6802221A627B687B
:103B100084229B5804221A437B6884215A50A42390
:103B2000FB181B680422134011D09C23FB181B6850
:103B3000012213400BD07B681B6804221A627B6849
:103B400084229B5802221A437B6884215A50A42362
:103B5000FB181B680822134017D0A023FB181B6812
:103B60002022134005D19C23FB181B68012213401F
:103B70000BD07B681B6808221A627B6884229B58E2
:103B800008221A437B6884215A50A423FB181A6820
:103B900080231B01134013D0A023FB181A68802335
:103BA000DB0413400CD07B681B68802212011A6270
:103BB0007B6884229B5820221A437B6884215A50B8
:103BC0007B6884229B58002B00D101E2A423FB18C0
:103BD0001B68202213400ED0A023FB181B68202254
:103BE000134008D07B689B6E002B04D07B689B6ED3
:103BF0007A68100098477B6884229B5894217A1831
:103C000013607B681B689B6840221340402B04D0E4
:103C10007B181B682822134047D07B68180000F0EF
:103C200065FE7B681B689B6840221340402B37D1A0
:103C3000EFF310833B663B6E90203A18136001232C
:103C40007B667B6E83F31088C0467B681B689A682E
:103C50007B681B6840218A439A603B181B68BB66DF
:103C6000BB6E83F31088C0467B685B6F002B12D05D
:103C70007B685B6F144A9A637B685B6F1800FDF783
:103C800081FB031E1AD07B685B6F9A6B7B685B6F4E
:103C90001800904712E07B68180000F0AFF90DE0C3
:103CA0007B68180000F0AAF908E07B68180000F0B3
:103CB000A5F97B6884220021995089E1C04687E1FB
:103CC0000F08000020010004B54900087B681B6E46
:103CD000012B00D03BE1A423FB181B6810221340EA
:103CE00000D134E1A023FB181B681022134000D13F
:103CF0002DE17B681B6810221A627B681B689B6839
:103D000040221340402B00D0A1E07B685B6F1B6812
:103D10005A687E217B181A807B181B88002B00D1E3
:103D200058E17B6858229B5A7A1812889A4200D32D
:103D300050E17B687A185A2112885A527B685B6F6F
:103D40001B681B68202213406FD1EFF310833B6385
:103D50003B6BBB6701237B637B6B83F31088C0469F
:103D60007B681B681A687B681B689E490A401A605A
:103D7000BB6FBB63BB6B83F31088C046EFF310834C
:103D8000FB63FB6B7B6701233B643B6C83F3108815
:103D9000C0467B681B689A687B681B6801218A4360
:103DA0009A607B6F7B647B6C83F31088C046EFF373
:103DB0001083BB64BB6C3B670123FB64FB6C83F328
:103DC0001088C0467B681B689A687B681B68402126
:103DD0008A439A603B6F3B653B6D83F31088C04616
:103DE0007B688022202199507B6800221A66EFF3BD
:103DF00010837B657B6DFB660123BB65BB6D83F325
:103E00001088C0467B681B681A687B681B68102195
:103E10008A431A60FB6EFB65FB6D83F31088C04616
:103E20007B685B6F1800FDF76DFA7B6802225A66AB
:103E30007B6858229A5A7B685A215B5A9BB2D31AE4
:103E40009AB27B681100180000F0E0F8C2E07B68CD
:103E50005822995A7B685A229B5A9AB28E203B1854
:103E60008A1A1A807B685A229B5A9BB2002B00D177
:103E7000B2E03B181B88002B00D1ADE0EFF31083BC
:103E8000FB60FB6888243A19136001233B613B699E
:103E900083F31088C0467B681B681A687B681B68C0
:103EA00051490A401A603B191B687B617B6983F3A7
:103EB0001088C046EFF31083BB61BB6984243A19B4
:103EC00013600123FB61FB6983F31088C0467B68A4
:103ED0001B689A687B681B6801218A439A603B19BA
:103EE0001B683B623B6A83F31088C0467B68802274
:103EF000202199507B6800221A667B6800229A660E
:103F0000EFF310837B627B6A80243A1913600123EC
:103F1000BB62BB6A83F31088C0467B681B681A6863
:103F20007B681B6810218A431A603B191B68FB627F
:103F3000FB6A83F31088C0467B6802225A663B18EE
:103F40001A887B681100180000F060F844E0A42390
:103F5000FB181A6880235B03134010D09C23FB18C6
:103F60001A688023DB03134009D07B681B6880221A
:103F700052031A627B68180000F05EFD2FE0A42354
:103F8000FB181B68802213400FD0A023FB181B686E
:103F90008022134009D07B68DB6E002B1ED07B682B
:103FA000DB6E7A681000984718E0A423FB181B68A2
:103FB0004022134013D0A023FB181B68402213405B
:103FC0000DD07B68180000F00CFD08E0C04606E04C
:103FD000C04604E0C04602E0C04600E0C046BD4620
:103FE0002BB090BDFFFEFFFFDFFEFFFF80B582B06C
:103FF00000AF7860C046BD4602B080BD80B582B0DB
:1040000000AF7860C046BD4602B080BD80B582B0CA
:1040100000AF78600A00BB1C1A80C046BD4602B0E3
:1040200080BD0000B0B58EB000AFF8611A23182231
:104030009B18DB1900221A70FB699A68FB691B69DF
:104040001A43FB695B691A43FB69DB6913437B63B2
:10405000FB691B681B68C34A13401900FB691B6896
:104060007A6B0A431A60FB691B685B68BE4A13409F
:104070001900FB69DA68FB691B680A435A60FB692F
:104080009B697B63FB691B68B84A934204D0FB6958
:104090001B6A7A6B13437B63FB691B689B68B44A9A
:1040A00013401900FB691B687A6B0A439A60FB692D
:1040B0001B68B04A934231D1AF4BDB6C03221340F3
:1040C000032B1DD023D8022B0CD020D8002B02D0DC
:1040D000012B0ED01BE01B2318229B18DB19012299
:1040E0001A70B4E01B2318229B18DB1902221A70E5
:1040F000ADE01B2318229B18DB1904221A70A6E0DE
:104100001B2318229B18DB1908221A709FE01B231F
:1041100018229B18DB1910221A7098E0FB691B68A3
:10412000964A934231D1944BDB6C0C2213400C2BFA
:104130001DD023D8082B0CD020D8002B02D0042B64
:104140000ED01BE01B2318229B18DB1900221A70CB
:104150007DE01B2318229B18DB1902221A7076E0DF
:104160001B2318229B18DB1904221A706FE01B23F3
:1041700018229B18DB1908221A7068E01B231822EA
:104180009B18DB1910221A7061E0FB691B687C4ADE
:10419000934206D11B2318229B18DB1900221A70A8
:1041A00055E0FB691B68774A934206D11B2318220E
:1041B0009B18DB1900221A7049E0FB691B686B4AE7
:1041C00093423ED16C4BDA6CC0231B011340C022DA
:1041D0001201934227D0C022120193422AD8802292
:1041E0001201934211D080221201934222D8002B57
:1041F00004D08022D20093420ED01BE01B23182251
:104200009B18DB1900221A7021E01B2318229B182F
:10421000DB1902221A701AE01B2318229B18DB19E3
:1042200004221A7013E01B2318229B18DB190822A2
:104230001A700CE01B2318229B18DB1910221A702D
:1042400005E01B2318229B18DB1910221A70FB694A
:104250001B68464A934200D09AE01B2318229B1801
:10426000DB191B78082B1DD020DC042B15D01DDC9E
:10427000002B02D0022B05D018E0FEF793FE0300BE
:10428000FB621CE03C4B1B681022134002D03E4BEB
:10429000FB6214E03D4BFB6211E0FEF7D3FD03002F
:1042A000FB620CE080231B02FB6208E00023FB6240
:1042B0001A2318229B18DB1901221A70C046FB6AC8
:1042C000002B00D133E1FB695A6813005B009B1897
:1042D000FA6A9A4205D3FB695B681B03FA6A9A4241
:1042E00006D91A2318229B18DB1901221A701EE125
:1042F000FB6A3B6100237B6139697A690B001B0E05
:10430000100005021D430B001C02FB695B685B0883
:10431000BB600023FB60B868F96800196941FB695C
:104320005B683B6000237B603A687B68FBF78AFF31
:1043300002000B001300BB62BA6AC0239B009A42C2
:1043400009D3BA6A80235B039A4204D2FB691B68D3
:10435000BA6ADA60EBE01A2318229B18DB190122F3
:104360001A70E4E0F369FFEFFFCFFFFF0048004061
:10437000FFF4FFFF003801400010024000440040FD
:10438000004C00400050004000093D000024F400B3
:10439000FB69DA6980231B029A4200D070E01B237C
:1043A00018229B18DB191B78082B22D89A00674B20
:1043B000D3181B689F46FEF7F5FD0300FB6221E062
:1043C000FEF706FE0300FB621CE0614B1B68102237
:1043D000134002D05F4BFB6214E05F4BFB6211E0C5
:1043E000FEF730FD0300FB620CE080231B02FB6242
:1043F00008E00023FB621A2318229B18DB19012214
:104400001A70C046FB6A002B00D190E0FB6A5A008C
:10441000FB695B685B08D218FB695B6819001000D8
:10442000FBF784FE0300BB62BB6A0F2B21D9BA6A7B
:1044300080235B029A421CD2BB6A9AB20E201824D7
:104440000319DB190F218A431A80BB6A5B089BB2F0
:104450000722134099B20319DB190219D2191288E5
:104460000A431A80FB691B680219D2191288DA60A4
:104470005DE01A2318229B18DB1901221A7056E0FE
:104480001B2318229B18DB191B78082B22D89A00B3
:10449000324BD3181B689F46FEF784FD0300FB6276
:1044A00021E0FEF795FD0300FB621CE0284B1B6832
:1044B0001022134002D0274BFB6214E0264BFB6214
:1044C00011E0FEF7BFFC0300FB620CE080231B023F
:1044D000FB6208E00023FB621A2318229B18DB19F9
:1044E00001221A70C046FB6A002B20D0FB695B6872
:1044F0005A08FB6AD218FB695B6819001000FBF7C9
:1045000015FE0300BB62BB6A0F2B0AD9BA6A80236F
:104510005B029A4205D2BB6A9AB2FB691B68DA60F9
:1045200005E01A2318229B18DB1901221A70FB6977
:1045300000229A66FB690022DA661A2318229B1869
:10454000DB191B781800BD460EB0B0BDC05900087D
:104550000010024000093D000024F400E459000866
:1045600080B582B000AF78607B685B6A012213403F
:104570000BD07B681B685B684A4A134019007B6854
:104580009A6A7B681B680A435A607B685B6A0222EE
:1045900013400BD07B681B685B68434A13401900CB
:1045A0007B68DA6A7B681B680A435A607B685B6ACF
:1045B000042213400BD07B681B685B683B4A1340A6
:1045C00019007B681A6B7B681B680A435A607B681A
:1045D0005B6A082213400BD07B681B685B68344A17
:1045E000134019007B685A6B7B681B680A435A604A
:1045F0007B685B6A102213400BD07B681B689B684A
:104600002C4A134019007B689A6B7B681B680A432D
:104610009A607B685B6A202213400BD07B681B6822
:104620009B68254A134019007B68DA6B7B681B681E
:104630000A439A607B685B6A402213401DD07B6806
:104640001B685B681D4A134019007B681A6C7B6805
:104650001B680A435A607B681A6C80235B039A428A
:104660000BD17B681B685B68154A134019007B6897
:104670005A6C7B681B680A435A607B685B6A8022BD
:1046800013400BD07B681B685B680E4A134019000F
:104690007B689A6C7B681B680A435A60C046BD46BB
:1046A00002B080BDFFFFFDFFFFFFFEFFFFFFFBFF2E
:1046B000FF7FFFFFFFEFFFFFFFDFFFFFFFFFEFFFCA
:1046C000FFFF9FFFFFFFF7FF80B592B002AF78605A
:1046D0007B68842200219950FCF7ECFC0300FB630B
:1046E0007B681B681B6808221340082B2CD1FB6BCE
:1046F000802291037868464A0092002200F08CF8EC
:10470000031E21D0EFF310837B627B6ABB6301231E
:10471000BB62BB6A83F31088C0467B681B681A685B
:104720007B681B6880218A431A60BB6BFB62FB6A53
:1047300083F31088C0467B682022DA677B68782282
:104740000021995403235FE07B681B681B680422E7
:104750001340042B46D1FB6B8022D10378682C4A8E
:104760000092002200F058F8031E3BD0EFF31083B4
:10477000FB60FB687B6301233B613B6983F310882B
:10478000C0467B681B681A687B681B6821490A4021
:104790001A607B6B7B617B6983F31088C046EFF303
:1047A0001083BB61BB693B630123FB61FB6983F33E
:1047B0001088C0467B681B689A687B681B6801216B
:1047C0008A439A603B6B3B623B6A83F31088C04626
:1047D0007B688022202199507B687822002199549F
:1047E000032311E07B682022DA677B688022202186
:1047F00099507B6800221A667B6800225A667B68A3
:1048000078220021995400231800BD4610B080BDC5
:10481000FFFFFF01DFFEFFFF80B584B000AFF8604F
:10482000B9603B60FB1D1A704BE0BB69013348D097
:10483000FCF740FC02003B68D31ABA699A4202D3E3
:10484000BB69002B01D103234BE0FB681B681B688D
:104850000422134035D0FB681B68DB690822134033
:10486000082B11D1FB681B6808221A62FB6818002C
:1048700000F03CF8FB68842208219950FB687822FC
:104880000021995401232CE0FB681B68DA6980231E
:104890001B011A4080231B019A4212D1FB681B683E
:1048A000802212011A62FB68180000F01FF8FB68F2
:1048B000842220219950FB687822002199540323F7
:1048C0000FE0FB681B68DB69BA681340BA68D31A4B
:1048D0005A425341DBB21A00FB1D1B789A42A4D006
:1048E00000231800BD4604B080BD000080B58EB026
:1048F00000AF7860EFF310837B617B697B630123FA
:10490000BB61BB6983F31088C0467B681B681A686B
:104910007B681B6826490A401A607B6BFB61FB6958
:1049200083F31088C046EFF310833B623B6A3B631E
:1049300001237B627B6A83F31088C0467B681B6817
:104940009A687B681B6801218A439A603B6BBB6253
:10495000BB6A83F31088C0467B681B6E012B18D19D
:10496000EFF31083BB60BB68FB620123FB60FB6855
:1049700083F31088C0467B681B681A687B681B68D5
:1049800010218A431A60FB6A3B613B6983F31088FC
:10499000C0467B688022202199507B6800221A66DD
:1049A0007B6800229A66C046BD460EB080BDC046F8
:1049B000DFFEFFFF80B584B000AF78607B689B6A44
:1049C000FB60FB685A2200219952FB6852220021A9
:1049D0009952FB681800FFF711FBC046BD4604B0B2
:1049E00080BD80B586B000AF7860EFF31083BB6008
:1049F000BB687B610123FB60FB6883F31088C046C2
:104A00007B681B681A687B681B6840218A431A60B0
:104A10007B693B613B6983F31088C0467B68202239
:104A2000DA677B680022DA667B681800FFF7DEFA37
:104A3000C046BD4606B080BD80B582B000AF78608C
:104A4000C046BD4602B080BD002310B5040003601F
:104A50004360836081814366C281036143618361F6
:104A6000190008225C3000F00FF90B4B24626362DE
:104A70000A4BA3620A4BE3620A4B23630A4B9C4234
:104A800005D00A4B9C4202D0094B9C4203D1200026
:104A9000583000F079F910BDF14B0008194C0008AE
:104AA000514C00087D4C00082C020020940200208C
:104AB000FC02002010B5034A0349044800F06CF8DA
:104AC00010BDC0461000002019560008200000202C
:104AD00041680B4B10B50400994201D000F09CFDD9
:104AE000A168084B994202D0200000F095FDE168D2
:104AF000054B994202D0200000F08EFD10BDC0464B
:104B00002C02002094020020FC02002010B5094B6A
:104B1000094A04211A6009480022FFF795FF012283
:104B200009210748FFF790FF022212210548FFF7ED
:104B30008BFF10BD64030020B54A00082C02002042
:104B400094020020FC02002010B5024800F01DF97C
:104B500010BDC0466D03002010B5024800F016F9E4
:104B600010BDC0466D03002010B50400FFF7ECFF38
:104B7000236A002B02D0FFF7EFFF10BD044B236226
:104B8000044B1B68002BF6D1FFF7C0FFF3E7C046CC
:104B9000D14A000864030020F7B5140000260090F5
:104BA0000191A5686768013F04D52468002CF8D1FD
:104BB0003000FEBDAB89012B08D90E22AB5E01335C
:104BC00004D029000098019B984706436835EAE71E
:104BD0000FB407B5054904AB086804CB816801939D
:104BE00000F0FAF903B008BC04B018471C0000201C
:104BF00070B50C000E25495F00F074F8002803DB47
:104C0000636D1B18636570BDA389024A1340A381BD
:104C1000F9E7C046FFEFFFFFF8B51F008B890500DD
:104C20000C001600DB0505D50E23C95E0022022309
:104C300000F044F8A389054A28001340A3813200FC
:104C40000E23E15E3B0000F061F8F8BDFFEFFFFFCF
:104C500070B50C000E25495F00F030F8A389421CA6
:104C600003D1054A1340A38170BD80225201134332
:104C7000A3816065F8E7C046FFEFFFFF10B50E2384
:104C8000C95E00F009F810BD03008218934200D1FC
:104C9000704719700133F9E7002370B5064D040021
:104CA00008002B60FCF70DF9431C03D12B68002B87
:104CB00000D0236070BDC0466803002070B50400BA
:104CC000080011001A000023054D2B60FCF71AF9AB
:104CD000431C03D12B68002B00D0236070BDC0465D
:104CE0006803002070B50400080011001A000023BA
:104CF000054D2B60FCF7ACF8431C03D12B68002B4F
:104D000000D0236070BDC0466803002070B5040069
:104D1000080011001A000023054D2B60FCF7B5F8C0
:104D2000431C03D12B68002B00D0236070BDC0460C
:104D300068030020014B18687047C0461C00002023
:104D400070B500260C4C0D4D641BA410A64209D171
:104D5000002600F0DBFD0A4C0A4D641BA410A6429D
:104D600005D170BDB300EB5898470136EEE7B300AC
:104D7000EB5898470136F2E7445A0008445A0008B5
:104D8000485A0008445A00087047704770470000AE
:104D900070B505000C1E10D0043C2368002B00DA0F
:104DA000E418280000F0E0F81D4A1368002B05D134
:104DB00063601460280000F0DFF870BDA34208D9DA
:104DC000206821188B42F3D119685B6809182160AB
:104DD000EEE71A005B68002B01D0A342F9D91168F5
:104DE0005018A0420BD12068091850181160834256
:104DF000E0D118685B68411811605360DAE7A0429F
:104E000002D90C232B60D5E7206821188B4203D1EF
:104E100019685B680918216063605460CAE7C0467E
:104E20007403002070B50F4E0D0031680400002996
:104E300002D100F0BDFC30602900200000F0B8FC79
:104E4000431C03D101256D42280070BD0323C51CFE
:104E50009D43A842F8D0291A200000F0A9FC013097
:104E6000F2D1EFE770030020F7B50322CB1C934388
:104E7000083305001F000C2B34D20C27B94233D85D
:104E8000280000F071F8374E33681C00002C2FD139
:104E900039002800FFF7C6FF0400431C5FD13468C7
:104EA0000094009B002B4AD1002C52D0236828008C
:104EB000E3180099019300F07BFC019B834248D1E9
:104EC00023682800FF1A3900FFF7ACFF013040D0FB
:104ED0002368DB19236033685A68002A33D1009BAA
:104EE000336019E0002BC9DA0C232B600020FEBDD3
:104EF0002168C91B20D40B290AD9E2192760A342D3
:104F000004D1326063681160536005E05A60F9E7CC
:104F10006268A3420ED13260280000F02DF8200014
:104F200007220B30231D9043C21A9842DFD01B1A70
:104F3000A350DCE75A60EFE723006468A6E7009C13
:104F400063680093ADE71A005B68A342FBD10023BE
:104F5000DAE70C2328002B6000F00EF8C6E70760A4
:104F6000DAE7C0467403002010B50248FFF70DFFD2
:104F700010BDC0466C03002010B50248FFF706FFC5
:104F800010BDC0466C030020936810B5013B9360D0
:104F9000002B04DA9469A34207DB0A2905D01368C1
:104FA000581C10601970080010BD00F060FB010073
:104FB000F9E7F8B506000F001400D518AC4201D18E
:104FC000002007E021783A003000FFF7DDFF0134D0
:104FD000431CF3D1F8BD0000F0B5A1B00F001500DF
:104FE0001E000390002804D0036A002B01D1FFF7B4
:104FF000BBFD7B6EDB0705D4BB899B0502D4B86D76
:10500000FFF7C3FEBB891B0702D53B69002B13D1F9
:105010003900039800F06EFB00280DD07B6EDB0793
:1050200003D50120404221B0F0BDBB899B05F8D4D7
:10503000B86DFFF7ABFEF4E7002308AC63612033E3
:1050400063761033A37607962E003378002B01D0B9
:10505000252B48D1731B0593AE420BD02A00390093
:105060000398FFF7A6FF013000D1AEE06369059A0F
:105070009B1863613378002B00D1A6E00122002346
:105080005242626004A954325218751C2360E360D6
:10509000A3601370A365594B052218002978059366
:1050A00000F098FB6E1C00281FD12268D30604D59F
:1050B000532304A95B1820211970130704D5532327
:1050C00004A95B182B2119702B782A2B16D02E00DF
:1050D00000210A20E3683278751C303A092A50D939
:1050E000002911D117E00136AFE7059B2268C01AED
:1050F00001238340134335002360CCE7079B191D30
:105100001B680791002B01DB0B9304E05B42E3601B
:1051100002231343236033782E2B0CD173782A2B70
:1051200034D1079B02361A1D1B680792002B01DA47
:1051300001235B420993324D03222800317800F0AD
:1051400049FB002806D04023401B834022680136DB
:1051500013432360317806222A48751C217600F01B
:1051600039FB002840D0284B002B22D10722079B77
:1051700007339343083307936369049A9B18636169
:1051800062E743432E0001219B18A4E700230A2075
:105190001900013663603278751C303A092A03D948
:1051A000002BC8D00991C6E741432E00012389187E
:1051B000F1E707AA009221003A00144B039800E09F
:1051C00000BF0490049B0133D6D17B6EDB0705D46E
:1051D000BB899B0502D4B86DFFF7D8FDBB895B0680
:1051E00000D51EE70D981EE707AA009221003A009D
:1051F000064B039800F07CF8E3E7C046085A000825
:105200000E5A0008125A000800000000B34F0008B0
:10521000F7B5160001938A680B690C000090934261
:1052200000DA13002200336043321278002A01D0E2
:105230000133336023689B0602D533680233336041
:105240002268062315001D401A4227D0230043334D
:105250001B785A1E93412268920630D4220001998D
:105260000098089D4332A847013025D006222368C4
:1052700000251340042B05D13368E568ED1AEB4394
:10528000DB171D40A3682269934201DD9B1AED18CC
:105290000026B54220D1002010E00135E3683268D5
:1052A0009B1AAB42D2DD2200012301990098089F8E
:1052B0001932B8470130F0D101204042FEBD302004
:1052C000E1184331087021005A1C45310978A218B1
:1052D000433202331170C1E7220001230199009883
:1052E000089F1A32B8470130E6D00136D1E70000F6
:1052F000F0B58BB006920A004332079305900392F3
:105300000A7E0C00109B782A09D8622A0BD8002A42
:1053100000D1BCE07B490491582A00D190E02500DF
:1053200042352A7022E0100063381528F7D8FAF7C2
:10533000F3FE16001F00F6FFF6FFF6FFF6FF1F0054
:10534000F6FFF6FFF6FFF6FFA10036008000F6FF3D
:10535000F6FFB200F6FF3600F6FFF6FF84002500E8
:105360001A684235111D196013682B700123A0E0E3
:1053700018680968021D0D060BD506681A60002E14
:1053800003DA2D23039A764213705E4B0A270493A7
:1053900018E006681A604906F1D536B2EFE70868EA
:1053A000196840C9050602D4400600D5B6B2196096
:1053B000544B0A2704936F2A00D1023F2300002296
:1053C00043331A706368A360002B03DB0421226857
:1053D0008A432260002E02D1039D002B0CD0039D36
:1053E00030003900FAF728FF049B013D5B5C2B700D
:1053F000330006009F42F3D9082F09D12368DB0749
:1054000006D5626823699A4202DC3023013D2B7085
:10541000039B5B1B2361079B210000930598069B60
:1054200009AAFFF7F5FE013048D1012040420BB038
:10543000F0BD202209680A43226078223249049193
:10544000210045310A701968226840C9100602D44B
:10545000500600D5B6B21960D30702D520231343F6
:105460002360002E01D01027A8E720222368934351
:105470002360F8E71A680D68101D49691860136801
:105480002E0601D5196002E06D06FBD519800023B8
:10549000039D2361BFE71A68111D1960156800217B
:1054A0002800626800F096F9002801D0401B606077
:1054B000636823610023039A1370ACE72A00236911
:1054C00006990598079DA8470130AED023689B0731
:1054D00015D4099BE0689842A9DA1800A7E72200D2
:1054E000012306990598079E1932B04701309CD0D8
:1054F0000135E368099A9B1AAB42F0DCE9E7002525
:10550000F7E7C046195A00082A5A0008F7B50C22D6
:105510008B5E05000C001A0756D44A68002A02DC8C
:105520000A6C002A4EDDE76A002F4BD00022802053
:105530002E682A601A004001216A0240034233D0DB
:10554000626DA3895B0706D56368D21A636B002B73
:1055500001D0236CD21A00232800E76A216AB847D9
:10556000A289431C06D129681D2946D8294B0B4125
:10557000DB0742D40023636023692360D20405D58E
:10558000431C02D12B68002B00D16065616B2E603B
:10559000002917D023004433994202D02800FFF796
:1055A000F7FB002363630DE001232800B8470200E6
:1055B000431CC6D12B68002BC3D01D2B01D0162B4A
:1055C0001AD12E6000201EE00E69002EFAD00F685E
:1055D0000E60BA1B019200229B0700D14A69A260AB
:1055E000019B002BEEDDA36A32001F002800019B07
:1055F000216AB847002807DCA28940230120134311
:105600001BB2A3814042FEBD019B36181B1A0193B9
:10561000E6E7C046FEFFBFDF0B6970B505000C0072
:10562000002B02D10025280070BD002804D0036A99
:10563000002B01D1FFF798FA0C22A35E002BF1D0CA
:10564000626ED20704D49B0502D4A06DFFF79DFBC8
:1056500028002100FFF75AFF636E0500DB07E2D444
:10566000A3899B05DFD4A06DFFF790FBDBE7F8B5BE
:1056700006000D001400002804D0036A002B01D19D
:10568000FFF772FAA369A360A3891B0702D52369F8
:10569000002B09D12100300000F02CF8002803D0A5
:1056A00001256D422800F8BD23692068EFB2C01AB9
:1056B0006369EDB2834205DC21003000FFF7ACFFE7
:1056C0000028EDD1A3680130013BA36023685A1C78
:1056D00022601F706369834204D0A389DB07E1D590
:1056E0000A2DDFD121003000FFF796FF0028D9D026
:1056F000D6E700002D4B70B5050018680C00002897
:1057000004D0036A002B01D1FFF72EFA0C23E25ECE
:10571000130723D4D30607D409232B604023012089
:105720001343A38140423AE0520713D5616B00292D
:1057300008D023004433994202D02800FFF728FB09
:10574000002363632422A3899343A381002363601E
:10575000236923600823A2891343A3812369002BB3
:105760000BD1A0218022A389890092000B40934293
:1057700003D02100280000F063F80C23E25E012131
:1057800013000B400A420BD00023A36063695B4205
:10579000A36100202369834201D11306BED470BDEA
:1057A000910700D46369A360F3E7C0461C000020A2
:1057B000002370B5064D040008002B60FBF7AEFB1C
:1057C000431C03D12B68002B00D0236070BDC04662
:1057D00068030020C9B28218904201D100207047AE
:1057E00003788B42FBD00130F6E7000070B50E0065
:1057F0001D000E23C95E140096B000290CDAB28990
:105800008023110019401A4214D18023DB000020AC
:105810002960236016B070BD6A4600F053F8002876
:10582000EDDBF02301991B021940044BC9184B42D0
:105830005941EAE700214023E9E7C04600E0FFFFC5
:10584000F0B502268B8905000C0085B0334207D0E5
:1058500023004733236023610123636105B0F0BD5A
:1058600003AB02AAFFF7C2FF029F01903900280094
:10587000FFF7FAFA002808D10C22A35E9A05EDD4AE
:10588000032293431E43A681E2E78023A28920607E
:105890001343A381039B20616761002B0CD0280078
:1058A0000E23E15E00F020F8002805D00323A28932
:1058B0009A43023B1343A381A389019A1343A38113
:1058C000CCE70000002370B5064D0400080011006D
:1058D0002B60FBF700FB431C03D12B68002B00D08F
:1058E000236070BD68030020002370B5064D0400DE
:1058F00008002B60FBF7FDFA431C03D12B68002B3B
:1059000000D0236070BDC04668030020F8B5C046D3
:10591000F8BC08BC9E467047F8B5C046F8BC08BC49
:045920009E467047E8
:105924004572726F7220696E69740D0A000000007E
:10593400446F6E6520696E69740D0A004572726F5A
:10594400722054780D0A00004572726F72205278EA
:105954000D0A000053656E736F722056616C756595
:105964003A2025640A000000456E746572696E670A
:1059740020536C656570206D6F64652E2E2E0D0AA4
:1059840000000000576F6B652075702076696120F8
:10599400504130210D0A000000000000000000000A
:1059A40001020304060708090000000001020304C1
:1059B400030406080C10182030000000B643000849
:1059C400C0430008CA430008F2430008E04300084B
:1059D400F2430008F2430008F2430008EA430008D7
:1059E40098440008A2440008AC440008D4440008C9
:1059F400C2440008D4440008D4440008D444000835
:105A0400CC440008232D302B2000686C4C006566C4
:105A140067454647003031323334353637383941FB
:105A24004243444546003031323334353637383911
:085A3400616263646566000015
:085A3C00A4A8FF7F0100000097
:045A4400E90000086D
:045A4800C100000891
:105A4C000100000000002000040000000100000024
:105A5C0000000000030000002C02002020000020A9
:105A6C00000000002C02002094020020FC02002008
:105A7C00000000000000000000000000000000001A
:105A8C00000000000000000000000000000000000A
:105A9C0000000000000000000000000000000000FA
:0C5AAC00000000000000000000000000EE
:0400000508000F954B
:00000001FF
